{
  "_format": "hh-sol-artifact-1",
  "contractName": "TinyBank",
  "sourceName": "contracts/TinyBank.sol",
  "abi": [
    {
      "inputs": [
        {
          "internalType": "contract IMyToken",
          "name": "_stakingToken",
          "type": "address"
        },
        {
          "internalType": "address[5]",
          "name": "_managers",
          "type": "address[5]"
        }
      ],
      "stateMutability": "nonpayable",
      "type": "constructor"
    },
    {
      "anonymous": false,
      "inputs": [
        {
          "indexed": false,
          "internalType": "address",
          "name": "from",
          "type": "address"
        },
        {
          "indexed": false,
          "internalType": "uint256",
          "name": "amount",
          "type": "uint256"
        }
      ],
      "name": "Staked",
      "type": "event"
    },
    {
      "anonymous": false,
      "inputs": [
        {
          "indexed": false,
          "internalType": "uint256",
          "name": "amount",
          "type": "uint256"
        },
        {
          "indexed": false,
          "internalType": "address",
          "name": "to",
          "type": "address"
        }
      ],
      "name": "Withdraw",
      "type": "event"
    },
    {
      "inputs": [],
      "name": "confirm",
      "outputs": [],
      "stateMutability": "nonpayable",
      "type": "function"
    },
    {
      "inputs": [
        {
          "internalType": "uint256",
          "name": "",
          "type": "uint256"
        }
      ],
      "name": "confirmed",
      "outputs": [
        {
          "internalType": "bool",
          "name": "",
          "type": "bool"
        }
      ],
      "stateMutability": "view",
      "type": "function"
    },
    {
      "inputs": [
        {
          "internalType": "address",
          "name": "to",
          "type": "address"
        }
      ],
      "name": "currentReward",
      "outputs": [
        {
          "internalType": "uint256",
          "name": "",
          "type": "uint256"
        }
      ],
      "stateMutability": "view",
      "type": "function"
    },
    {
      "inputs": [
        {
          "internalType": "address",
          "name": "",
          "type": "address"
        }
      ],
      "name": "lastClaimedBlock",
      "outputs": [
        {
          "internalType": "uint256",
          "name": "",
          "type": "uint256"
        }
      ],
      "stateMutability": "view",
      "type": "function"
    },
    {
      "inputs": [
        {
          "internalType": "uint256",
          "name": "",
          "type": "uint256"
        }
      ],
      "name": "managers",
      "outputs": [
        {
          "internalType": "address",
          "name": "",
          "type": "address"
        }
      ],
      "stateMutability": "view",
      "type": "function"
    },
    {
      "inputs": [],
      "name": "owner",
      "outputs": [
        {
          "internalType": "address",
          "name": "",
          "type": "address"
        }
      ],
      "stateMutability": "view",
      "type": "function"
    },
    {
      "inputs": [
        {
          "internalType": "uint256",
          "name": "_amount",
          "type": "uint256"
        }
      ],
      "name": "setRewardPerBlock",
      "outputs": [],
      "stateMutability": "nonpayable",
      "type": "function"
    },
    {
      "inputs": [
        {
          "internalType": "uint256",
          "name": "_amount",
          "type": "uint256"
        }
      ],
      "name": "stake",
      "outputs": [],
      "stateMutability": "nonpayable",
      "type": "function"
    },
    {
      "inputs": [
        {
          "internalType": "address",
          "name": "",
          "type": "address"
        }
      ],
      "name": "staked",
      "outputs": [
        {
          "internalType": "uint256",
          "name": "",
          "type": "uint256"
        }
      ],
      "stateMutability": "view",
      "type": "function"
    },
    {
      "inputs": [],
      "name": "stakingToken",
      "outputs": [
        {
          "internalType": "contract IMyToken",
          "name": "",
          "type": "address"
        }
      ],
      "stateMutability": "view",
      "type": "function"
    },
    {
      "inputs": [],
      "name": "totalStaked",
      "outputs": [
        {
          "internalType": "uint256",
          "name": "",
          "type": "uint256"
        }
      ],
      "stateMutability": "view",
      "type": "function"
    },
    {
      "inputs": [
        {
          "internalType": "uint256",
          "name": "_amount",
          "type": "uint256"
        }
      ],
      "name": "withdraw",
      "outputs": [],
      "stateMutability": "nonpayable",
      "type": "function"
    }
  ],
  "bytecode": "0x6080604052670de0b6b3a764000060095534801561001c57600080fd5b506040516116ef3803806116ef833981810160405281019061003e919061034a565b3381816000806101000a81548173ffffffffffffffffffffffffffffffffffffffff021916908373ffffffffffffffffffffffffffffffffffffffff16021790555060005b60058110156101045781816005811061009f5761009e61038a565b5b6020020151600182600581106100b8576100b761038a565b5b0160006101000a81548173ffffffffffffffffffffffffffffffffffffffff021916908373ffffffffffffffffffffffffffffffffffffffff1602179055508080600101915050610083565b50505081600760006101000a81548173ffffffffffffffffffffffffffffffffffffffff021916908373ffffffffffffffffffffffffffffffffffffffff160217905550600954600a8190555050506103b9565b6000604051905090565b600080fd5b600073ffffffffffffffffffffffffffffffffffffffff82169050919050565b600061019282610167565b9050919050565b60006101a482610187565b9050919050565b6101b481610199565b81146101bf57600080fd5b50565b6000815190506101d1816101ab565b92915050565b600080fd5b6000601f19601f8301169050919050565b7f4e487b7100000000000000000000000000000000000000000000000000000000600052604160045260246000fd5b610225826101dc565b810181811067ffffffffffffffff82111715610244576102436101ed565b5b80604052505050565b6000610257610158565b9050610263828261021c565b919050565b600067ffffffffffffffff821115610283576102826101ed565b5b602082029050919050565b600080fd5b61029c81610187565b81146102a757600080fd5b50565b6000815190506102b981610293565b92915050565b60006102d26102cd84610268565b61024d565b905080602084028301858111156102ec576102eb61028e565b5b835b81811015610315578061030188826102aa565b8452602084019350506020810190506102ee565b5050509392505050565b600082601f830112610334576103336101d7565b5b60056103418482856102bf565b91505092915050565b60008060c0838503121561036157610360610162565b5b600061036f858286016101c2565b92505060206103808582860161031f565b9150509250929050565b7f4e487b7100000000000000000000000000000000000000000000000000000000600052603260045260246000fd5b611327806103c86000396000f3fe608060405234801561001057600080fd5b50600436106100b45760003560e01c806398807d841161007157806398807d84146101695780639d18e4b014610199578063a694fc3a146101c9578063bb872b4a146101e5578063c19e82d514610201578063f3ac273214610231576100b4565b80632e1a7d4d146100b95780633d39c260146100d55780637022b58e1461010557806372f702f31461010f578063817b1cd21461012d5780638da5cb5b1461014b575b600080fd5b6100d360048036038101906100ce9190610d83565b610261565b005b6100ef60048036038101906100ea9190610d83565b6105f5565b6040516100fc9190610df1565b60405180910390f35b61010d61062b565b005b61011761072f565b6040516101249190610e6b565b60405180910390f35b610135610755565b6040516101429190610e95565b60405180910390f35b61015361075b565b6040516101609190610df1565b60405180910390f35b610183600480360381019061017e9190610edc565b61077f565b6040516101909190610e95565b60405180910390f35b6101b360048036038101906101ae9190610edc565b610797565b6040516101c09190610e95565b60405180910390f35b6101e360048036038101906101de9190610d83565b6108a6565b005b6101ff60048036038101906101fa9190610d83565b610bfd565b005b61021b60048036038101906102169190610edc565b610c56565b6040516102289190610e95565b60405180910390f35b61024b60048036038101906102469190610d83565b610c6e565b6040516102589190610f24565b60405180910390f35b336000600b60008373ffffffffffffffffffffffffffffffffffffffff1673ffffffffffffffffffffffffffffffffffffffff1681526020019081526020016000205411156103f4576000600860008373ffffffffffffffffffffffffffffffffffffffff1673ffffffffffffffffffffffffffffffffffffffff16815260200190815260200160002054436102f79190610f6e565b90506000600c54600b60008573ffffffffffffffffffffffffffffffffffffffff1673ffffffffffffffffffffffffffffffffffffffff16815260200190815260200160002054600a548461034c9190610fa2565b6103569190610fa2565b6103609190611013565b9050600760009054906101000a900473ffffffffffffffffffffffffffffffffffffffff1673ffffffffffffffffffffffffffffffffffffffff166394bf804d82856040518363ffffffff1660e01b81526004016103bf929190611044565b600060405180830381600087803b1580156103d957600080fd5b505af11580156103ed573d6000803e3d6000fd5b5050505050505b43600860008373ffffffffffffffffffffffffffffffffffffffff1673ffffffffffffffffffffffffffffffffffffffff1681526020019081526020016000208190555081600b60003373ffffffffffffffffffffffffffffffffffffffff1673ffffffffffffffffffffffffffffffffffffffff1681526020019081526020016000205410156104ba576040517f08c379a00000000000000000000000000000000000000000000000000000000081526004016104b1906110ca565b60405180910390fd5b600760009054906101000a900473ffffffffffffffffffffffffffffffffffffffff1673ffffffffffffffffffffffffffffffffffffffff1663b7760c8f83336040518363ffffffff1660e01b8152600401610517929190611044565b600060405180830381600087803b15801561053157600080fd5b505af1158015610545573d6000803e3d6000fd5b5050505081600b60003373ffffffffffffffffffffffffffffffffffffffff1673ffffffffffffffffffffffffffffffffffffffff16815260200190815260200160002060008282546105989190610f6e565b9250508190555081600c60008282546105b19190610f6e565b925050819055507f8353ffcac0876ad14e226d9783c04540bfebf13871e868157d2a391cad98e91882336040516105e9929190611044565b60405180910390a15050565b6001816005811061060557600080fd5b016000915054906101000a900473ffffffffffffffffffffffffffffffffffffffff1681565b6000805b60058110156106eb573373ffffffffffffffffffffffffffffffffffffffff1660018260058110610663576106626110ea565b5b0160009054906101000a900473ffffffffffffffffffffffffffffffffffffffff1673ffffffffffffffffffffffffffffffffffffffff16036106de57600191506001600682600581106106ba576106b96110ea565b5b602091828204019190066101000a81548160ff0219169083151502179055506106eb565b808060010191505061062f565b508061072c576040517f08c379a000000000000000000000000000000000000000000000000000000000815260040161072390611165565b60405180910390fd5b50565b600760009054906101000a900473ffffffffffffffffffffffffffffffffffffffff1681565b600c5481565b60008054906101000a900473ffffffffffffffffffffffffffffffffffffffff1681565b600b6020528060005260406000206000915090505481565b600080600b60008473ffffffffffffffffffffffffffffffffffffffff1673ffffffffffffffffffffffffffffffffffffffff16815260200190815260200160002054111561089c576000600860008473ffffffffffffffffffffffffffffffffffffffff1673ffffffffffffffffffffffffffffffffffffffff168152602001908152602001600020544361082d9190610f6e565b9050600c54600b60008573ffffffffffffffffffffffffffffffffffffffff1673ffffffffffffffffffffffffffffffffffffffff16815260200190815260200160002054600a54836108809190610fa2565b61088a9190610fa2565b6108949190611013565b9150506108a1565b600090505b919050565b336000600b60008373ffffffffffffffffffffffffffffffffffffffff1673ffffffffffffffffffffffffffffffffffffffff168152602001908152602001600020541115610a39576000600860008373ffffffffffffffffffffffffffffffffffffffff1673ffffffffffffffffffffffffffffffffffffffff168152602001908152602001600020544361093c9190610f6e565b90506000600c54600b60008573ffffffffffffffffffffffffffffffffffffffff1673ffffffffffffffffffffffffffffffffffffffff16815260200190815260200160002054600a54846109919190610fa2565b61099b9190610fa2565b6109a59190611013565b9050600760009054906101000a900473ffffffffffffffffffffffffffffffffffffffff1673ffffffffffffffffffffffffffffffffffffffff166394bf804d82856040518363ffffffff1660e01b8152600401610a04929190611044565b600060405180830381600087803b158015610a1e57600080fd5b505af1158015610a32573d6000803e3d6000fd5b5050505050505b43600860008373ffffffffffffffffffffffffffffffffffffffff1673ffffffffffffffffffffffffffffffffffffffff1681526020019081526020016000208190555060008211610ac0576040517f08c379a0000000000000000000000000000000000000000000000000000000008152600401610ab7906111d1565b60405180910390fd5b600760009054906101000a900473ffffffffffffffffffffffffffffffffffffffff1673ffffffffffffffffffffffffffffffffffffffff166323b872dd3330856040518463ffffffff1660e01b8152600401610b1f939291906111f1565b600060405180830381600087803b158015610b3957600080fd5b505af1158015610b4d573d6000803e3d6000fd5b5050505081600b60003373ffffffffffffffffffffffffffffffffffffffff1673ffffffffffffffffffffffffffffffffffffffff1681526020019081526020016000206000828254610ba09190611228565b9250508190555081600c6000828254610bb99190611228565b925050819055507f9e71bc8eea02a63969f509818f2dafb9254532904319f9dbda79b67bd34a5f3d3383604051610bf192919061125c565b60405180910390a15050565b610c05610c98565b610c44576040517f08c379a0000000000000000000000000000000000000000000000000000000008152600401610c3b906112d1565b60405180910390fd5b610c4c610cf7565b80600a8190555050565b60086020528060005260406000206000915090505481565b60068160058110610c7e57600080fd5b60209182820401919006915054906101000a900460ff1681565b600080600090505b6005811015610cee5760068160058110610cbd57610cbc6110ea565b5b602091828204019190069054906101000a900460ff16610ce1576000915050610cf4565b8080600101915050610ca0565b50600190505b90565b60005b6005811015610d4557600060068260058110610d1957610d186110ea565b5b602091828204019190066101000a81548160ff0219169083151502179055508080600101915050610cfa565b50565b600080fd5b6000819050919050565b610d6081610d4d565b8114610d6b57600080fd5b50565b600081359050610d7d81610d57565b92915050565b600060208284031215610d9957610d98610d48565b5b6000610da784828501610d6e565b91505092915050565b600073ffffffffffffffffffffffffffffffffffffffff82169050919050565b6000610ddb82610db0565b9050919050565b610deb81610dd0565b82525050565b6000602082019050610e066000830184610de2565b92915050565b6000819050919050565b6000610e31610e2c610e2784610db0565b610e0c565b610db0565b9050919050565b6000610e4382610e16565b9050919050565b6000610e5582610e38565b9050919050565b610e6581610e4a565b82525050565b6000602082019050610e806000830184610e5c565b92915050565b610e8f81610d4d565b82525050565b6000602082019050610eaa6000830184610e86565b92915050565b610eb981610dd0565b8114610ec457600080fd5b50565b600081359050610ed681610eb0565b92915050565b600060208284031215610ef257610ef1610d48565b5b6000610f0084828501610ec7565b91505092915050565b60008115159050919050565b610f1e81610f09565b82525050565b6000602082019050610f396000830184610f15565b92915050565b7f4e487b7100000000000000000000000000000000000000000000000000000000600052601160045260246000fd5b6000610f7982610d4d565b9150610f8483610d4d565b9250828203905081811115610f9c57610f9b610f3f565b5b92915050565b6000610fad82610d4d565b9150610fb883610d4d565b9250828202610fc681610d4d565b91508282048414831517610fdd57610fdc610f3f565b5b5092915050565b7f4e487b7100000000000000000000000000000000000000000000000000000000600052601260045260246000fd5b600061101e82610d4d565b915061102983610d4d565b92508261103957611038610fe4565b5b828204905092915050565b60006040820190506110596000830185610e86565b6110666020830184610de2565b9392505050565b600082825260208201905092915050565b7f696e73756666696369656e74207374616b656420616d6f756e74000000000000600082015250565b60006110b4601a8361106d565b91506110bf8261107e565b602082019050919050565b600060208201905081810360008301526110e3816110a7565b9050919050565b7f4e487b7100000000000000000000000000000000000000000000000000000000600052603260045260246000fd5b7f596f7520617265206e6f742061206d616e616765720000000000000000000000600082015250565b600061114f60158361106d565b915061115a82611119565b602082019050919050565b6000602082019050818103600083015261117e81611142565b9050919050565b7f63616e6e6f74207374616b65203020616d6f756e740000000000000000000000600082015250565b60006111bb60158361106d565b91506111c682611185565b602082019050919050565b600060208201905081810360008301526111ea816111ae565b9050919050565b60006060820190506112066000830186610de2565b6112136020830185610de2565b6112206040830184610e86565b949350505050565b600061123382610d4d565b915061123e83610d4d565b925082820190508082111561125657611255610f3f565b5b92915050565b60006040820190506112716000830185610de2565b61127e6020830184610e86565b9392505050565b7f4e6f7420616c6c20636f6e6669726d6564207965740000000000000000000000600082015250565b60006112bb60158361106d565b91506112c682611285565b602082019050919050565b600060208201905081810360008301526112ea816112ae565b905091905056fea2646970667358221220001b77d82daca22a488ae69bf2010bac394e9fbae46f85a135022f3552a4eee164736f6c634300081c0033",
  "linkReferences": {},
  "deployedLinkReferences": {}
}